{
  "contractName": "Pool",
  "abi": [
    {
      "inputs": [
        {
          "internalType": "address",
          "name": "tomToken",
          "type": "address"
        },
        {
          "internalType": "address",
          "name": "jerryToken",
          "type": "address"
        }
      ],
      "stateMutability": "nonpayable",
      "type": "constructor"
    },
    {
      "anonymous": false,
      "inputs": [
        {
          "indexed": true,
          "internalType": "address",
          "name": "owner",
          "type": "address"
        },
        {
          "indexed": true,
          "internalType": "address",
          "name": "spender",
          "type": "address"
        },
        {
          "indexed": false,
          "internalType": "uint256",
          "name": "value",
          "type": "uint256"
        }
      ],
      "name": "Approval",
      "type": "event"
    },
    {
      "anonymous": false,
      "inputs": [
        {
          "indexed": true,
          "internalType": "address",
          "name": "from",
          "type": "address"
        },
        {
          "indexed": true,
          "internalType": "address",
          "name": "to",
          "type": "address"
        },
        {
          "indexed": false,
          "internalType": "uint256",
          "name": "value",
          "type": "uint256"
        }
      ],
      "name": "Transfer",
      "type": "event"
    },
    {
      "inputs": [
        {
          "internalType": "address",
          "name": "owner",
          "type": "address"
        },
        {
          "internalType": "address",
          "name": "spender",
          "type": "address"
        }
      ],
      "name": "allowance",
      "outputs": [
        {
          "internalType": "uint256",
          "name": "",
          "type": "uint256"
        }
      ],
      "stateMutability": "view",
      "type": "function"
    },
    {
      "inputs": [
        {
          "internalType": "address",
          "name": "spender",
          "type": "address"
        },
        {
          "internalType": "uint256",
          "name": "amount",
          "type": "uint256"
        }
      ],
      "name": "approve",
      "outputs": [
        {
          "internalType": "bool",
          "name": "",
          "type": "bool"
        }
      ],
      "stateMutability": "nonpayable",
      "type": "function"
    },
    {
      "inputs": [
        {
          "internalType": "address",
          "name": "account",
          "type": "address"
        }
      ],
      "name": "balanceOf",
      "outputs": [
        {
          "internalType": "uint256",
          "name": "",
          "type": "uint256"
        }
      ],
      "stateMutability": "view",
      "type": "function"
    },
    {
      "inputs": [],
      "name": "decimals",
      "outputs": [
        {
          "internalType": "uint8",
          "name": "",
          "type": "uint8"
        }
      ],
      "stateMutability": "view",
      "type": "function"
    },
    {
      "inputs": [
        {
          "internalType": "address",
          "name": "spender",
          "type": "address"
        },
        {
          "internalType": "uint256",
          "name": "subtractedValue",
          "type": "uint256"
        }
      ],
      "name": "decreaseAllowance",
      "outputs": [
        {
          "internalType": "bool",
          "name": "",
          "type": "bool"
        }
      ],
      "stateMutability": "nonpayable",
      "type": "function"
    },
    {
      "inputs": [
        {
          "internalType": "address",
          "name": "spender",
          "type": "address"
        },
        {
          "internalType": "uint256",
          "name": "addedValue",
          "type": "uint256"
        }
      ],
      "name": "increaseAllowance",
      "outputs": [
        {
          "internalType": "bool",
          "name": "",
          "type": "bool"
        }
      ],
      "stateMutability": "nonpayable",
      "type": "function"
    },
    {
      "inputs": [
        {
          "internalType": "uint256",
          "name": "amount",
          "type": "uint256"
        }
      ],
      "name": "mint",
      "outputs": [],
      "stateMutability": "nonpayable",
      "type": "function"
    },
    {
      "inputs": [],
      "name": "name",
      "outputs": [
        {
          "internalType": "string",
          "name": "",
          "type": "string"
        }
      ],
      "stateMutability": "view",
      "type": "function"
    },
    {
      "inputs": [],
      "name": "symbol",
      "outputs": [
        {
          "internalType": "string",
          "name": "",
          "type": "string"
        }
      ],
      "stateMutability": "view",
      "type": "function"
    },
    {
      "inputs": [],
      "name": "totalSupply",
      "outputs": [
        {
          "internalType": "uint256",
          "name": "",
          "type": "uint256"
        }
      ],
      "stateMutability": "view",
      "type": "function"
    },
    {
      "inputs": [
        {
          "internalType": "address",
          "name": "recipient",
          "type": "address"
        },
        {
          "internalType": "uint256",
          "name": "amount",
          "type": "uint256"
        }
      ],
      "name": "transfer",
      "outputs": [
        {
          "internalType": "bool",
          "name": "",
          "type": "bool"
        }
      ],
      "stateMutability": "nonpayable",
      "type": "function"
    },
    {
      "inputs": [
        {
          "internalType": "address",
          "name": "sender",
          "type": "address"
        },
        {
          "internalType": "address",
          "name": "recipient",
          "type": "address"
        },
        {
          "internalType": "uint256",
          "name": "amount",
          "type": "uint256"
        }
      ],
      "name": "transferFrom",
      "outputs": [
        {
          "internalType": "bool",
          "name": "",
          "type": "bool"
        }
      ],
      "stateMutability": "nonpayable",
      "type": "function"
    },
    {
      "inputs": [
        {
          "internalType": "uint256",
          "name": "tomAmount",
          "type": "uint256"
        },
        {
          "internalType": "uint256",
          "name": "jerryAmount",
          "type": "uint256"
        }
      ],
      "name": "addLiquidity",
      "outputs": [],
      "stateMutability": "nonpayable",
      "type": "function"
    },
    {
      "inputs": [
        {
          "internalType": "uint256",
          "name": "lpAmount",
          "type": "uint256"
        }
      ],
      "name": "removeLiquidity",
      "outputs": [],
      "stateMutability": "nonpayable",
      "type": "function"
    },
    {
      "inputs": [
        {
          "internalType": "uint256",
          "name": "tomIn",
          "type": "uint256"
        },
        {
          "internalType": "uint256",
          "name": "jerryOut",
          "type": "uint256"
        }
      ],
      "name": "swapTomforJerry",
      "outputs": [],
      "stateMutability": "nonpayable",
      "type": "function"
    },
    {
      "inputs": [
        {
          "internalType": "uint256",
          "name": "jerryAmount",
          "type": "uint256"
        }
      ],
      "name": "getTomAmountByJerry",
      "outputs": [
        {
          "internalType": "uint256",
          "name": "",
          "type": "uint256"
        }
      ],
      "stateMutability": "view",
      "type": "function"
    },
    {
      "inputs": [
        {
          "internalType": "uint256",
          "name": "jerryIn",
          "type": "uint256"
        },
        {
          "internalType": "uint256",
          "name": "tomOut",
          "type": "uint256"
        }
      ],
      "name": "swapJerryforTom",
      "outputs": [],
      "stateMutability": "nonpayable",
      "type": "function"
    },
    {
      "inputs": [
        {
          "internalType": "uint256",
          "name": "tomAmount",
          "type": "uint256"
        }
      ],
      "name": "getJerryAmountByTom",
      "outputs": [
        {
          "internalType": "uint256",
          "name": "",
          "type": "uint256"
        }
      ],
      "stateMutability": "view",
      "type": "function"
    }
  ],
  "bytecode": "0x60806040523480156200001157600080fd5b5060405162001db338038062001db3833981016040819052620000349162000186565b6040805180820182526005808252642a37b5b2b760d91b6020808401828152855180870190965292855284015281519192916200007491600391620000c3565b5080516200008a906004906020840190620000c3565b5050600580546001600160a01b039485166001600160a01b031991821617909155600680549390941692169190911790915550620001fb565b828054620000d190620001be565b90600052602060002090601f016020900481019282620000f5576000855562000140565b82601f106200011057805160ff191683800117855562000140565b8280016001018555821562000140579182015b828111156200014057825182559160200191906001019062000123565b506200014e92915062000152565b5090565b5b808211156200014e576000815560010162000153565b80516001600160a01b03811681146200018157600080fd5b919050565b600080604083850312156200019a57600080fd5b620001a58362000169565b9150620001b56020840162000169565b90509250929050565b600181811c90821680620001d357607f821691505b60208210811415620001f557634e487b7160e01b600052602260045260246000fd5b50919050565b611ba8806200020b6000396000f3fe608060405234801561001057600080fd5b50600436106101165760003560e01c806370a08231116100a2578063a0712d6811610071578063a0712d6814610235578063a457c2d714610248578063a9059cbb1461025b578063dd62ed3e1461026e578063fd196d55146102a757600080fd5b806370a08231146101de57806395d89b41146102075780639c8f9f231461020f5780639cd441da1461022257600080fd5b806322039111116100e9578063220391111461018357806323b872dd14610196578063313ce567146101a957806339509351146101b85780636a4f0fdf146101cb57600080fd5b806306fdde031461011b578063095ea7b3146101395780630a1217b41461015c57806318160ddd14610171575b600080fd5b6101236102ba565b60405161013091906118c4565b60405180910390f35b61014c610147366004611935565b61034c565b6040519015158152602001610130565b61016f61016a36600461195f565b610362565b005b6002545b604051908152602001610130565b610175610191366004611981565b6106bc565b61014c6101a436600461199a565b610868565b60405160128152602001610130565b61014c6101c6366004611935565b610912565b61016f6101d936600461195f565b61094e565b6101756101ec3660046119d6565b6001600160a01b031660009081526020819052604090205490565b610123610b24565b61016f61021d366004611981565b610b33565b61016f61023036600461195f565b610d88565b61016f610243366004611981565b611147565b61014c610256366004611935565b611154565b61014c610269366004611935565b6111ed565b61017561027c3660046119f1565b6001600160a01b03918216600090815260016020908152604080832093909416825291909152205490565b6101756102b5366004611981565b6111fa565b6060600380546102c990611a24565b80601f01602080910402602001604051908101604052809291908181526020018280546102f590611a24565b80156103425780601f1061031757610100808354040283529160200191610342565b820191906000526020600020905b81548152906001019060200180831161032557829003601f168201915b5050505050905090565b6000610359338484611393565b50600192915050565b6000821161038b5760405162461bcd60e51b815260040161038290611a5f565b60405180910390fd5b600081116103ab5760405162461bcd60e51b815260040161038290611a5f565b6005546040516370a0823160e01b81523060048201819052916000916001600160a01b03909116906370a0823190602401602060405180830381865afa1580156103f9573d6000803e3d6000fd5b505050506040513d601f19601f8201168201806040525081019061041d9190611a8d565b6006546040516370a0823160e01b81526001600160a01b038581166004830152929350600092909116906370a0823190602401602060405180830381865afa15801561046d573d6000803e3d6000fd5b505050506040513d601f19601f820116820180604052508101906104919190611a8d565b60055460405163a9059cbb60e01b8152336004820152602481018790529192506001600160a01b03169063a9059cbb906044016020604051808303816000875af11580156104e3573d6000803e3d6000fd5b505050506040513d601f19601f820116820180604052508101906105079190611aa6565b506006546040516323b872dd60e01b81526001600160a01b03909116906323b872dd9061053c90339087908a90600401611ac8565b6020604051808303816000875af115801561055b573d6000803e3d6000fd5b505050506040513d601f19601f8201168201806040525081019061057f9190611aa6565b506005546040516370a0823160e01b81526001600160a01b03858116600483015260009216906370a0823190602401602060405180830381865afa1580156105cb573d6000803e3d6000fd5b505050506040513d601f19601f820116820180604052508101906105ef9190611a8d565b6006546040516370a0823160e01b81526001600160a01b038781166004830152929350600092909116906370a0823190602401602060405180830381865afa15801561063f573d6000803e3d6000fd5b505050506040513d601f19601f820116820180604052508101906106639190611a8d565b905061066f8385611b02565b6106798284611b02565b10156106b35760405162461bcd60e51b8152602060048201526009602482015268696e76616c6964206b60b81b6044820152606401610382565b50505050505050565b600080821161070d5760405162461bcd60e51b815260206004820152601c60248201527f616d6f756e742073686f756c64206265206d6f7265207468616e2030000000006044820152606401610382565b6005546040516370a0823160e01b81523060048201819052916000916001600160a01b03909116906370a0823190602401602060405180830381865afa15801561075b573d6000803e3d6000fd5b505050506040513d601f19601f8201168201806040525081019061077f9190611a8d565b6006546040516370a0823160e01b81526001600160a01b038581166004830152929350600092909116906370a0823190602401602060405180830381865afa1580156107cf573d6000803e3d6000fd5b505050506040513d601f19601f820116820180604052508101906107f39190611a8d565b90506000821180156108055750600081115b61084a5760405162461bcd60e51b8152602060048201526016602482015275696e73756666696369656e74206c697175696469747960501b6044820152606401610382565b816108558287611b02565b61085f9190611b21565b95945050505050565b60006108758484846114b8565b6001600160a01b0384166000908152600160209081526040808320338452909152902054828110156108fa5760405162461bcd60e51b815260206004820152602860248201527f45524332303a207472616e7366657220616d6f756e74206578636565647320616044820152676c6c6f77616e636560c01b6064820152608401610382565b6109078533858403611393565b506001949350505050565b3360008181526001602090815260408083206001600160a01b03871684529091528120549091610359918590610949908690611b43565b611393565b6000821161096e5760405162461bcd60e51b815260040161038290611a5f565b6000811161098e5760405162461bcd60e51b815260040161038290611a5f565b6005546040516370a0823160e01b81523060048201819052916000916001600160a01b03909116906370a0823190602401602060405180830381865afa1580156109dc573d6000803e3d6000fd5b505050506040513d601f19601f82011682018060405250810190610a009190611a8d565b6006546040516370a0823160e01b81526001600160a01b038581166004830152929350600092909116906370a0823190602401602060405180830381865afa158015610a50573d6000803e3d6000fd5b505050506040513d601f19601f82011682018060405250810190610a749190611a8d565b6005546040516323b872dd60e01b81529192506001600160a01b0316906323b872dd90610aa990339087908a90600401611ac8565b6020604051808303816000875af1158015610ac8573d6000803e3d6000fd5b505050506040513d601f19601f82011682018060405250810190610aec9190611aa6565b5060065460405163a9059cbb60e01b8152336004820152602481018690526001600160a01b039091169063a9059cbb9060440161053c565b6060600480546102c990611a24565b33600090815260208190526040902054811115610b625760405162461bcd60e51b815260040161038290611a5f565b6005546040516370a0823160e01b81523060048201819052916000916001600160a01b03909116906370a0823190602401602060405180830381865afa158015610bb0573d6000803e3d6000fd5b505050506040513d601f19601f82011682018060405250810190610bd49190611a8d565b6006546040516370a0823160e01b81526001600160a01b038581166004830152929350600092909116906370a0823190602401602060405180830381865afa158015610c24573d6000803e3d6000fd5b505050506040513d601f19601f82011682018060405250810190610c489190611a8d565b90506000610c5560025490565b9050600081610c648588611b02565b610c6e9190611b21565b9050600082610c7d8589611b02565b610c879190611b21565b9050610c933388611687565b60055460405163a9059cbb60e01b8152336004820152602481018490526001600160a01b039091169063a9059cbb906044016020604051808303816000875af1158015610ce4573d6000803e3d6000fd5b505050506040513d601f19601f82011682018060405250810190610d089190611aa6565b5060065460405163a9059cbb60e01b8152336004820152602481018390526001600160a01b039091169063a9059cbb906044016020604051808303816000875af1158015610d5a573d6000803e3d6000fd5b505050506040513d601f19601f82011682018060405250810190610d7e9190611aa6565b5050505050505050565b6005546040516370a0823160e01b81523060048201819052916000916001600160a01b03909116906370a0823190602401602060405180830381865afa158015610dd6573d6000803e3d6000fd5b505050506040513d601f19601f82011682018060405250810190610dfa9190611a8d565b6006546040516370a0823160e01b81526001600160a01b038581166004830152929350600092909116906370a0823190602401602060405180830381865afa158015610e4a573d6000803e3d6000fd5b505050506040513d601f19601f82011682018060405250810190610e6e9190611a8d565b6005546040516323b872dd60e01b81529192506001600160a01b0316906323b872dd90610ea390339087908a90600401611ac8565b6020604051808303816000875af1158015610ec2573d6000803e3d6000fd5b505050506040513d601f19601f82011682018060405250810190610ee69190611aa6565b506006546040516323b872dd60e01b81526001600160a01b03909116906323b872dd90610f1b90339087908990600401611ac8565b6020604051808303816000875af1158015610f3a573d6000803e3d6000fd5b505050506040513d601f19601f82011682018060405250810190610f5e9190611aa6565b506005546040516370a0823160e01b81526001600160a01b03858116600483015260009216906370a0823190602401602060405180830381865afa158015610faa573d6000803e3d6000fd5b505050506040513d601f19601f82011682018060405250810190610fce9190611a8d565b6006546040516370a0823160e01b81526001600160a01b038781166004830152929350600092909116906370a0823190602401602060405180830381865afa15801561101e573d6000803e3d6000fd5b505050506040513d601f19601f820116820180604052508101906110429190611a8d565b905061104e8385611b02565b6110588284611b02565b10156110925760405162461bcd60e51b8152602060048201526009602482015268696e76616c6964206b60b81b6044820152606401610382565b600061109d60025490565b90506000816110ad5750876110e2565b6110df866110bb848c611b02565b6110c59190611b21565b866110d0858c611b02565b6110da9190611b21565b6117cd565b90505b600081116111325760405162461bcd60e51b815260206004820152601760248201527f6c70546f6b656e2073686f756c64206e6f7420626520300000000000000000006044820152606401610382565b61113c33826117e5565b505050505050505050565b61115133826117e5565b50565b3360009081526001602090815260408083206001600160a01b0386168452909152812054828110156111d65760405162461bcd60e51b815260206004820152602560248201527f45524332303a2064656372656173656420616c6c6f77616e63652062656c6f77604482015264207a65726f60d81b6064820152608401610382565b6111e33385858403611393565b5060019392505050565b60006103593384846114b8565b600080821161124b5760405162461bcd60e51b815260206004820152601c60248201527f616d6f756e742073686f756c64206265206d6f7265207468616e2030000000006044820152606401610382565b6005546040516370a0823160e01b81523060048201819052916000916001600160a01b03909116906370a0823190602401602060405180830381865afa158015611299573d6000803e3d6000fd5b505050506040513d601f19601f820116820180604052508101906112bd9190611a8d565b6006546040516370a0823160e01b81526001600160a01b038581166004830152929350600092909116906370a0823190602401602060405180830381865afa15801561130d573d6000803e3d6000fd5b505050506040513d601f19601f820116820180604052508101906113319190611a8d565b90506000821180156113435750600081115b6113885760405162461bcd60e51b8152602060048201526016602482015275696e73756666696369656e74206c697175696469747960501b6044820152606401610382565b806108558387611b02565b6001600160a01b0383166113f55760405162461bcd60e51b8152602060048201526024808201527f45524332303a20617070726f76652066726f6d20746865207a65726f206164646044820152637265737360e01b6064820152608401610382565b6001600160a01b0382166114565760405162461bcd60e51b815260206004820152602260248201527f45524332303a20617070726f766520746f20746865207a65726f206164647265604482015261737360f01b6064820152608401610382565b6001600160a01b0383811660008181526001602090815260408083209487168084529482529182902085905590518481527f8c5be1e5ebec7d5bd14f71427d1e84f3dd0314c0f7b2291e5b200ac8c7c3b92591015b60405180910390a3505050565b6001600160a01b03831661151c5760405162461bcd60e51b815260206004820152602560248201527f45524332303a207472616e736665722066726f6d20746865207a65726f206164604482015264647265737360d81b6064820152608401610382565b6001600160a01b03821661157e5760405162461bcd60e51b815260206004820152602360248201527f45524332303a207472616e7366657220746f20746865207a65726f206164647260448201526265737360e81b6064820152608401610382565b6001600160a01b038316600090815260208190526040902054818110156115f65760405162461bcd60e51b815260206004820152602660248201527f45524332303a207472616e7366657220616d6f756e7420657863656564732062604482015265616c616e636560d01b6064820152608401610382565b6001600160a01b0380851660009081526020819052604080822085850390559185168152908120805484929061162d908490611b43565b92505081905550826001600160a01b0316846001600160a01b03167fddf252ad1be2c89b69c2b068fc378daa952ba7f163c4a11628f55a4df523b3ef8460405161167991815260200190565b60405180910390a350505050565b6001600160a01b0382166116e75760405162461bcd60e51b815260206004820152602160248201527f45524332303a206275726e2066726f6d20746865207a65726f206164647265736044820152607360f81b6064820152608401610382565b6001600160a01b0382166000908152602081905260409020548181101561175b5760405162461bcd60e51b815260206004820152602260248201527f45524332303a206275726e20616d6f756e7420657863656564732062616c616e604482015261636560f01b6064820152608401610382565b6001600160a01b038316600090815260208190526040812083830390556002805484929061178a908490611b5b565b90915550506040518281526000906001600160a01b038516907fddf252ad1be2c89b69c2b068fc378daa952ba7f163c4a11628f55a4df523b3ef906020016114ab565b60008183106117dc57816117de565b825b9392505050565b6001600160a01b03821661183b5760405162461bcd60e51b815260206004820152601f60248201527f45524332303a206d696e7420746f20746865207a65726f2061646472657373006044820152606401610382565b806002600082825461184d9190611b43565b90915550506001600160a01b0382166000908152602081905260408120805483929061187a908490611b43565b90915550506040518181526001600160a01b038316906000907fddf252ad1be2c89b69c2b068fc378daa952ba7f163c4a11628f55a4df523b3ef9060200160405180910390a35050565b600060208083528351808285015260005b818110156118f1578581018301518582016040015282016118d5565b81811115611903576000604083870101525b50601f01601f1916929092016040019392505050565b80356001600160a01b038116811461193057600080fd5b919050565b6000806040838503121561194857600080fd5b61195183611919565b946020939093013593505050565b6000806040838503121561197257600080fd5b50508035926020909101359150565b60006020828403121561199357600080fd5b5035919050565b6000806000606084860312156119af57600080fd5b6119b884611919565b92506119c660208501611919565b9150604084013590509250925092565b6000602082840312156119e857600080fd5b6117de82611919565b60008060408385031215611a0457600080fd5b611a0d83611919565b9150611a1b60208401611919565b90509250929050565b600181811c90821680611a3857607f821691505b60208210811415611a5957634e487b7160e01b600052602260045260246000fd5b50919050565b602080825260149082015273696e73756666696369656e742062616c616e636560601b604082015260600190565b600060208284031215611a9f57600080fd5b5051919050565b600060208284031215611ab857600080fd5b815180151581146117de57600080fd5b6001600160a01b039384168152919092166020820152604081019190915260600190565b634e487b7160e01b600052601160045260246000fd5b6000816000190483118215151615611b1c57611b1c611aec565b500290565b600082611b3e57634e487b7160e01b600052601260045260246000fd5b500490565b60008219821115611b5657611b56611aec565b500190565b600082821015611b6d57611b6d611aec565b50039056fea2646970667358221220446ed256eab426aafd97a6172d6dcce7f6499e09f3e4545cdddfe63f83a1a20464736f6c634300080a0033",
  "immutableReferences": {},
  "source": "// SPDX-License-Identifier: MIT\npragma solidity ^0.8.0;\n\nimport \"./LPToken.sol\";\nimport \"@openzeppelin/contracts/token/ERC20/IERC20.sol\";\nimport \"@openzeppelin/contracts/utils/math/Math.sol\";\n\ncontract Pool is LPToken {\n    IERC20 private _tomToken;\n    IERC20 private _jerryToken;\n\n    constructor(address tomToken, address jerryToken) LPToken() {\n        _tomToken = IERC20(tomToken);\n        _jerryToken = IERC20(jerryToken);\n    }\n\n    function addLiquidity(uint256 tomAmount, uint256 jerryAmount) public {\n        address poolAddr = address(this);\n        uint256 reserveTom = _tomToken.balanceOf(poolAddr);\n        uint256 reserveJerry = _jerryToken.balanceOf(poolAddr);\n\n        _tomToken.transferFrom(msg.sender, poolAddr, tomAmount);\n        _jerryToken.transferFrom(msg.sender, poolAddr, jerryAmount);\n\n        uint256 newReserveTom = _tomToken.balanceOf(poolAddr);\n        uint256 newReserveJerry = _jerryToken.balanceOf(poolAddr);\n\n        /*\n            reserveTom * reserveJerry = k\n            newReserveTom * newReserveJerry >= k\n        */\n        require(\n            newReserveTom * newReserveJerry >= reserveTom * reserveJerry,\n            \"invalid k\"\n        );\n\n        uint256 totalSupply = totalSupply();\n        uint256 lpToken = 0;\n        if (totalSupply == 0) {\n            lpToken = tomAmount;\n        } else {\n            lpToken = Math.min(\n                (tomAmount * totalSupply) / reserveTom,\n                (jerryAmount * totalSupply) / reserveJerry\n            );\n        }\n\n        require(lpToken > 0, \"lpToken should not be 0\");\n        _mint(msg.sender, lpToken);\n    }\n\n    function removeLiquidity(uint256 lpAmount) public {\n        require(balanceOf(msg.sender) >= lpAmount, \"insufficient balance\");\n\n        address poolAddr = address(this);\n\n        uint256 reserveTom = _tomToken.balanceOf(poolAddr);\n        uint256 reserveJerry = _jerryToken.balanceOf(poolAddr);\n\n        uint256 totalSupply = totalSupply();\n        uint256 tomAmount = (lpAmount * reserveTom) / totalSupply;\n        uint256 jerryAmount = (lpAmount * reserveJerry) / totalSupply;\n\n        _burn(msg.sender, lpAmount);\n        _tomToken.transfer(msg.sender, tomAmount);\n        _jerryToken.transfer(msg.sender, jerryAmount);\n    }\n\n    function swapTomforJerry(uint256 tomIn, uint256 jerryOut) public {\n        require(tomIn > 0, \"insufficient balance\");\n        require(jerryOut > 0, \"insufficient balance\");\n\n        address poolAddr = address(this);\n\n        uint256 reserveTom = _tomToken.balanceOf(poolAddr);\n        uint256 reserveJerry = _jerryToken.balanceOf(poolAddr);\n\n        _tomToken.transferFrom(msg.sender, poolAddr, tomIn);\n        _jerryToken.transfer(msg.sender, jerryOut);\n\n        uint256 newReserveTom = _tomToken.balanceOf(poolAddr);\n        uint256 newReserveJerry = _jerryToken.balanceOf(poolAddr);\n        require(\n            newReserveTom * newReserveJerry >= reserveTom * reserveJerry,\n            \"invalid k\"\n        );\n    }\n\n    function getTomAmountByJerry(uint256 jerryAmount)\n        public\n        view\n        returns (uint256)\n    {\n        require(jerryAmount > 0, \"amount should be more than 0\");\n\n        address poolAddr = address(this);\n\n        uint256 reserveTom = _tomToken.balanceOf(poolAddr);\n        uint256 reserveJerry = _jerryToken.balanceOf(poolAddr);\n        require(reserveTom > 0 && reserveJerry > 0, \"insufficient liquidity\");\n\n        return (jerryAmount * reserveTom) / reserveJerry;\n    }\n\n    function swapJerryforTom(uint256 jerryIn, uint256 tomOut) public {\n        require(jerryIn > 0, \"insufficient balance\");\n        require(tomOut > 0, \"insufficient balance\");\n\n        address poolAddr = address(this);\n\n        uint256 reserveTom = _tomToken.balanceOf(poolAddr);\n        uint256 reserveJerry = _jerryToken.balanceOf(poolAddr);\n\n        _tomToken.transfer(msg.sender, tomOut);\n        _jerryToken.transferFrom(msg.sender, poolAddr, jerryIn);\n\n        uint256 newReserveTom = _tomToken.balanceOf(poolAddr);\n        uint256 newReserveJerry = _jerryToken.balanceOf(poolAddr);\n        require(\n            newReserveTom * newReserveJerry >= reserveTom * reserveJerry,\n            \"invalid k\"\n        );\n    }\n\n    function getJerryAmountByTom(uint256 tomAmount)\n        public\n        view\n        returns (uint256)\n    {\n        require(tomAmount > 0, \"amount should be more than 0\");\n\n        address poolAddr = address(this);\n\n        uint256 reserveTom = _tomToken.balanceOf(poolAddr);\n        uint256 reserveJerry = _jerryToken.balanceOf(poolAddr);\n        require(reserveTom > 0 && reserveJerry > 0, \"insufficient liquidity\");\n\n        return (tomAmount * reserveJerry) / reserveTom;\n    }\n}\n",
  "sourcePath": "/Users/thanapongsomjai/Projects/UntrustedBank/contracts/Pool.sol",
  "compiler": {
    "name": "solc",
    "version": "0.8.10+commit.fc410830.Emscripten.clang"
  },
  "schemaVersion": "3.4.4",
  "updatedAt": "2022-02-05T16:33:42.971Z",
  "devdoc": {
    "kind": "dev",
    "methods": {
      "allowance(address,address)": {
        "details": "See {IERC20-allowance}."
      },
      "approve(address,uint256)": {
        "details": "See {IERC20-approve}. Requirements: - `spender` cannot be the zero address."
      },
      "balanceOf(address)": {
        "details": "See {IERC20-balanceOf}."
      },
      "decimals()": {
        "details": "Returns the number of decimals used to get its user representation. For example, if `decimals` equals `2`, a balance of `505` tokens should be displayed to a user as `5.05` (`505 / 10 ** 2`). Tokens usually opt for a value of 18, imitating the relationship between Ether and Wei. This is the value {ERC20} uses, unless this function is overridden; NOTE: This information is only used for _display_ purposes: it in no way affects any of the arithmetic of the contract, including {IERC20-balanceOf} and {IERC20-transfer}."
      },
      "decreaseAllowance(address,uint256)": {
        "details": "Atomically decreases the allowance granted to `spender` by the caller. This is an alternative to {approve} that can be used as a mitigation for problems described in {IERC20-approve}. Emits an {Approval} event indicating the updated allowance. Requirements: - `spender` cannot be the zero address. - `spender` must have allowance for the caller of at least `subtractedValue`."
      },
      "increaseAllowance(address,uint256)": {
        "details": "Atomically increases the allowance granted to `spender` by the caller. This is an alternative to {approve} that can be used as a mitigation for problems described in {IERC20-approve}. Emits an {Approval} event indicating the updated allowance. Requirements: - `spender` cannot be the zero address."
      },
      "name()": {
        "details": "Returns the name of the token."
      },
      "symbol()": {
        "details": "Returns the symbol of the token, usually a shorter version of the name."
      },
      "totalSupply()": {
        "details": "See {IERC20-totalSupply}."
      },
      "transfer(address,uint256)": {
        "details": "See {IERC20-transfer}. Requirements: - `recipient` cannot be the zero address. - the caller must have a balance of at least `amount`."
      },
      "transferFrom(address,address,uint256)": {
        "details": "See {IERC20-transferFrom}. Emits an {Approval} event indicating the updated allowance. This is not required by the EIP. See the note at the beginning of {ERC20}. Requirements: - `sender` and `recipient` cannot be the zero address. - `sender` must have a balance of at least `amount`. - the caller must have allowance for ``sender``'s tokens of at least `amount`."
      }
    },
    "version": 1
  },
  "userdoc": {
    "kind": "user",
    "methods": {},
    "version": 1
  }
}